:020000040800F2
:100000000000032069890008B9890008B98900083F
:10001000B9890008B9890008B98900080000000002
:10002000000000000000000000000000BD560008B5
:10003000B989000800000000C1560008C556000834
:10004000B9890008B9890008B9890008B989000888
:10005000B9890008B9890008B9890008B989000878
:10006000B9890008B9890008B9890008B989000868
:10007000C9560008B9890008D5560008B989000892
:10008000B9890008B9890008B9890008B989000848
:10009000B9890008B9890008B9890008B989000838
:1000A000B9890008B9890008B9890008E156000833
:1000B000B9890008B9890008B9890008B989000818
:1000C000B9890008B9890008B9890008B989000808
:1000D000B9890008B9890008B9890008ED560008F7
:1000E00015570008B9890008B9890008B9890008BE
:1000F000B9890008B9890008B9890008B9890008D8
:10010000B9890008B9890008B9890008B9890008C7
:10011000B9890008B9890008F9560008B9890008AA
:10012000B9890008B9890008B9890008B9890008A7
:10013000B989000805570008B9890008B98900087D
:10014000B9890008B9890008B98900080957000869
:10015000B9890008B9890008B9890008B989000877
:10016000B9890008B9890008B9890008B989000867
:10017000B9890008B9890008B989000800000000A1
:10018000B9890008B9890008B9890008B989000847
:10019000B9890008B9890008B9890008B989000837
:0C01A000B9890008B9890008B989000875
:1001B00010B5054C237833B9044B13B10448AFF3A1
:1001C00000800123237010BDC00300200000000048
:1001D000D0B7000808B5034B1BB103490348AFF380
:1001E000008008BD00000000C4030020D0B7000854
:1001F00081F0004102E000BF83F0004330B54FEAD8
:1002000041044FEA430594EA050F08BF90EA020F44
:100210001FBF54EA000C55EA020C7FEA645C7FEAD7
:10022000655C00F0E2804FEA5454D4EB5555B8BFFA
:100230006D420CDD2C4480EA020281EA030382EA6B
:10024000000083EA010180EA020281EA0303362DFD
:1002500088BF30BD11F0004F4FEA01314FF4801CD0
:100260004CEA113102D0404261EB410113F0004FE2
:100270004FEA03334CEA133302D0524263EB430399
:1002800094EA050F00F0A780A4F10104D5F1200E37
:100290000DDB02FA0EFC22FA05F2801841F1000192
:1002A00003FA0EF2801843FA05F359410EE0A5F166
:1002B00020050EF1200E012A03FA0EFC28BF4CF097
:1002C000020C43FA05F3C01851EBE37101F000454D
:1002D00007D54FF0000EDCF1000C7EEB00006EEB5A
:1002E0000101B1F5801F1BD3B1F5001F0CD34908E4
:1002F0005FEA30004FEA3C0C04F101044FEA44523B
:1003000012F5800F80F09A80BCF1004F08BF5FEAC1
:10031000500C50F1000041EB045141EA050130BDA1
:100320005FEA4C0C404141EB010111F4801FA4F144
:100330000104E9D191F0000F04BF01460020B1FA99
:1003400081F308BF2033A3F10B03B3F120020CDAD1
:100350000C3208DD02F1140CC2F10C0201FA0CF0AF
:1003600021FA02F10CE002F11402D8BFC2F1200C14
:1003700001FA02F120FA0CFCDCBF41EA0C019040CA
:10038000E41AA2BF01EB0451294330BD6FEA040413
:100390001F3C1CDA0C340EDC04F11404C4F12002FE
:1003A00020FA04F001FA02F340EA030021FA04F310
:1003B00045EA030130BDC4F10C04C4F1200220FA67
:1003C00002F001FA04F340EA0300294630BD21FAA5
:1003D00004F0294630BD94F0000F83F4801306BF6B
:1003E00081F480110134013D4EE77FEA645C18BF5F
:1003F0007FEA655C29D094EA050F08BF90EA020FF6
:1004000005D054EA000C04BF1946104630BD91EAED
:10041000030F1EBF0021002030BD5FEA545C05D1F0
:100420004000494128BF41F0004130BD14F580042F
:100430003CBF01F5801130BD01F0004545F0FE41A3
:1004400041F470014FF0000030BD7FEA645C1ABFD8
:10045000194610467FEA655C1CBF0B46024650EA0F
:10046000013406BF52EA033591EA030F41F400213B
:1004700030BD00BF90F0000F04BF0021704730B5C1
:100480004FF4806404F132044FF000054FF0000196
:1004900050E700BF90F0000F04BF0021704730B557
:1004A0004FF4806404F1320410F0004548BF40422C
:1004B0004FF000013EE700BF42004FEAE2014FEA81
:1004C00031014FEA02701FBF12F07F4393F07F4F5C
:1004D00081F06051704732F07F4208BF704793F05F
:1004E0007F4F04BF41F40021704730B54FF4607472
:1004F00001F0004521F000411CE700BF50EA010275
:1005000008BF704730B54FF000050AE050EA01021D
:1005100008BF704730B511F0004502D5404261EB8D
:1005200041014FF4806404F132045FEA915C3FF4CE
:10053000D8AE4FF003025FEADC0C18BF03325FEA6B
:10054000DC0C18BF033202EBDC02C2F1200300FA1C
:1005500003FC20FA02F001FA03FE40EA0E0021FA41
:1005600002F11444BDE600BF70B54FF0FF0C4CF42F
:10057000E06C1CEA11541DBF1CEA135594EA0C0FE1
:1005800095EA0C0F00F0DEF82C4481EA030621EA1C
:100590004C5123EA4C5350EA013518BF52EA033557
:1005A00041F4801143F4801338D0A0FB02CE4FF009
:1005B0000005E1FB02E506F00042E0FB03E54FF039
:1005C0000006E1FB03569CF0000F18BF4EF0010E31
:1005D000A4F1FF04B6F5007F64F5407404D25FEA2D
:1005E0004E0E6D4146EB060642EAC62141EA5551E0
:1005F0004FEAC52040EA5E504FEACE2EB4F1FD0C22
:1006000088BFBCF5E06F1ED8BEF1004F08BF5FEA9F
:10061000500E50F1000041EB045170BD06F0004651
:1006200046EA010140EA020081EA0301B4EB5C04FE
:10063000C2BFD4EB0C0541EA045170BD41F48011F6
:100640004FF0000E013C00F3AB8014F1360FDEBF1B
:10065000002001F0004170BDC4F10004203C35DAF7
:100660000C341BDC04F11404C4F1200500FA05F37A
:1006700020FA04F001FA05F240EA020001F000421B
:1006800021F0004110EBD37021FA04F642EB060191
:100690005EEA430E08BF20EAD37070BDC4F10C04BB
:1006A000C4F1200500FA04F320FA05F001FA04F27F
:1006B00040EA020001F0004110EBD37041F100016B
:1006C0005EEA430E08BF20EAD37070BDC4F1200576
:1006D00000FA05F24EEA020E20FA04F301FA05F2DE
:1006E00043EA020321FA04F001F0004121FA04F286
:1006F00020EA020000EBD3705EEA430E08BF20EA56
:10070000D37070BD94F0000F0FD101F0004640008F
:1007100041EB010111F4801F08BF013CF7D041EA11
:10072000060195F0000F18BF704703F00046520015
:1007300043EB030313F4801F08BF013DF7D043EAE6
:100740000603704794EA0C0F0CEA135518BF95EA9C
:100750000C0F0CD050EA410618BF52EA4306D1D123
:1007600081EA030101F000414FF0000070BD50EA42
:10077000410606BF1046194652EA430619D094EACC
:100780000C0F02D150EA013613D195EA0C0F05D1B6
:1007900052EA03361CBF104619460AD181EA03010A
:1007A00001F0004141F0FE4141F470014FF00000C2
:1007B00070BD41F0FE4141F4780170BD70B54FF05D
:1007C000FF0C4CF4E06C1CEA11541DBF1CEA1355DD
:1007D00094EA0C0F95EA0C0F00F0A7F8A4EB0504BF
:1007E00081EA030E52EA03354FEA013100F08880B6
:1007F0004FEA03334FF0805545EA131343EA12637F
:100800004FEA022245EA111545EA10654FEA002633
:100810000EF000419D4208BF964244F1FD0404F5EC
:10082000407402D25B084FEA3202B61A65EB030548
:100830005B084FEA32024FF480104FF4002CB6EB05
:10084000020E75EB030E22BFB61A754640EA0C0085
:100850005B084FEA3202B6EB020E75EB030E22BFC5
:10086000B61A754640EA5C005B084FEA3202B6EB06
:10087000020E75EB030E22BFB61A754640EA9C00C5
:100880005B084FEA3202B6EB020E75EB030E22BF95
:10089000B61A754640EADC0055EA060E18D04FEA53
:1008A000051545EA16754FEA06164FEAC30343EAF3
:1008B00052734FEAC2025FEA1C1CC0D111F4801FC0
:1008C0000BD141EA00014FF000004FF0004CB6E7B9
:1008D00011F4801F04BF01430020B4F1FD0C88BF58
:1008E000BCF5E06F3FF6AFAEB5EB030C04BFB6EB63
:1008F000020C5FEA500C50F1000041EB045170BD56
:100900000EF0004E4EEA113114EB5C04C2BFD4EB82
:100910000C0541EA045170BD41F480114FF0000E06
:10092000013C90E645EA060E8DE60CEA135594EA82
:100930000C0F08BF95EA0C0F3FF43BAF94EA0C0F85
:100940000AD150EA01347FF434AF95EA0C0F7FF4FA
:1009500025AF104619462CE795EA0C0F06D152EA4E
:1009600003353FF4FDAE1046194622E750EA410632
:1009700018BF52EA43067FF4C5AE50EA41047FF443
:100980000DAF52EA43057FF4EBAE12E74FF0FF3CA8
:1009900006E000BF4FF0010C02E000BF4FF0010C79
:1009A0004DF804CD4FEA410C7FEA6C5C4FEA430CF2
:1009B00018BF7FEA6C5C1BD001B050EA410C0CBF41
:1009C00052EA430C91EA030F02BF90EA020F0020A3
:1009D000704710F1000F91EA030F58BF994208BF0A
:1009E00090422CBFD8176FEAE37040F001007047C7
:1009F0004FEA410C7FEA6C5C02D150EA013C07D11E
:100A00004FEA430C7FEA6C5CD6D152EA033CD3D068
:100A10005DF8040B704700BF8446104662468C4662
:100A20001946634600E000BF01B5FFF7B7FF002895
:100A300048BF10F1000F01BD4DF808EDFFF7F4FFBE
:100A40000CBF012000205DF808FB00BF4DF808ED49
:100A5000FFF7EAFF34BF012000205DF808FB00BF6C
:100A60004DF808EDFFF7E0FF94BF012000205DF88E
:100A700008FB00BF4DF808EDFFF7CEFF94BF012043
:100A800000205DF808FB00BF4DF808EDFFF7C4FF3C
:100A900034BF012000205DF808FB00BF4FEA410C85
:100AA0007FEA6C5C02D150EA013C0AD14FEA430C68
:100AB0007FEA6C5C02D152EA033C02D14FF00000A5
:100AC00070474FF0010070474FEA4102B2F1E04336
:100AD00024BFB3F5001CDCF1FE5C0DD901F0004C25
:100AE0004FEAC0024CEA5070B2F1004F40EB830075
:100AF00008BF20F00100704711F0804F21D113F1A1
:100B00003872BCBF01F00040704741F480114FEAD9
:100B10005252C2F11802C2F1200C10FA0CF320FA62
:100B200002F018BF40F001004FEAC1234FEAD3237F
:100B300003FA0CFC40EA0C0023FA02F34FEA4303E9
:100B4000CCE77FEA625307D150EA01331EBF4FF072
:100B5000FE4040F44000704701F0004040F0FE408D
:100B600040F40000704700BF53B94AB9002908BFDC
:100B700000281CBF4FF0FF314FF0FF3000F072B97A
:100B8000ADF1080C6DE904CE00F006F8DDF804E0E4
:100B9000DDE9022304B070472DE9F047089E0446C2
:100BA0008846002B4BD18A42154667D9B2FA82F2A9
:100BB0004AB1C2F1200701FA02F320FA07F7954083
:100BC00047EA030894404FEA154E230CB8FBFEF7A2
:100BD0001FFA85FC0EFB178843EA084307FB0CF15C
:100BE000994209D9EB1807F1FF3080F01B81994237
:100BF00040F21881023F2B445B1AA4B2B3FBFEF013
:100C00000EFB103344EA034400FB0CFCA44509D955
:100C10002C1900F1FF3380F00781A44540F20481D4
:100C200002382C4440EA0740A4EB0C0400271EB114
:100C3000D4400023C6E900433946BDE8F0878B4223
:100C400009D9002E00F0EB800027C6E900013846E4
:100C50003946BDE8F087B3FA83F7002F47D18B42BE
:100C600002D3824200F2FA80841A61EB030301206E
:100C70009846002EE0D0C6E90048DDE702B9FFDE65
:100C8000B2FA82F2002A40F08F80491B4FEA154EDB
:100C90001FFA85F80127B1FBFEFC230C0EFB1C118B
:100CA00043EA014308FB0CF1994207D9EB180CF118
:100CB000FF3002D2994200F2CD808446591AA3B285
:100CC000B1FBFEF00EFB101443EA044408FB00F8ED
:100CD000A04507D92C1900F1FF3302D2A04500F23C
:100CE000B6801846A4EB080440EA0C409FE7C7F121
:100CF000200CBB4022FA0CFE4EEA030E01FA07F468
:100D000020FA0CF521FA0CF34FEA1E482543B3FBF9
:100D1000F8F92C0C08FB19331FFA8EFA44EA034346
:100D200009FB0AF49C4202FA07F200FA07F10BD918
:100D30001EEB030309F1FF3080F087809C4240F2F4
:100D40008480A9F1020973441B1BADB2B3FBF8F018
:100D500008FB103345EA034400FB0AFAA24508D910
:100D60001EEB040400F1FF336BD2A24569D90238AF
:100D7000744440EA0940A0FB0289A4EB0A044C45F4
:100D8000C2464B4654D351D0002E69D0B1EB0A0570
:100D900064EB030404FA0CFCFD40FC404CEA05053E
:100DA000C6E90054002747E7C2F1200320FA03F701
:100DB000954001FA02F021FA03F34FEA154E384349
:100DC000010CB3FBFEF71FFA85F80EFB173341EA5F
:100DD000034107FB08F38B4204FA02F407D96918B0
:100DE00007F1FF3C2FD28B422DD9023F2944CB1A69
:100DF00081B2B3FBFEF00EFB103341EA034100FB6E
:100E000008F38B4207D9691800F1FF3C17D28B42D7
:100E100015D902382944C91A40EA07473BE7374643
:100E2000304609E70746E7E61846FBE64145ABD200
:100E3000B8EB020A69EB0E0201381346A4E76046DC
:100E4000E9E7184695E76746D1E781467CE702382F
:100E50002C4447E7ACF1020C2B442FE7384608E757
:100E60003746E9E6704700BF034613F8012B002A16
:100E7000FBD1181A01387047000000000000000084
:100E800001F0FF01102A2BDB10F0070F08D010F83B
:100E9000013B013A8B422DD010F0070F42B3F6D13F
:100EA000F0B441EA012141EA014122F007047FF058
:100EB00000070023F0E80256083C85EA010586EAAF
:100EC000010685FA47F5A3FA87F586FA47F6A5FAEB
:100ED00087F68EB9EED1F0BC01F0FF0102F00702F7
:100EE00032B110F8013B013A83EA010313B1F8D1A2
:100EF0000020704701387047002D06BF3546033883
:100F0000073815F0010F07D1013015F4807F02BFBB
:100F1000013015F4C03F0130F0BC0138704700BF0C
:100F20004FEA410212F5001215D211D56FF4787311
:100F3000B3EB625212D94FEAC12343F0004343EAB4
:100F4000505311F0004F23FA02F018BF404270478F
:100F50004FF00000704750EA013005D111F0004019
:100F600008BF6FF0004070474FF00000704700BFAF
:100F700008B50B4B1A6842F400721A601A6842F402
:100F800080621A601A6842F480721A60032000F0CE
:100F90002DF8002004F052FB04F032FA002008BDC6
:100FA000003C0240034A044B11681B780B44136059
:100FB000704700BFB84D002000000020014B1868AA
:100FC000704700BFB84D002038B50446FFF7F6FF64
:100FD000631C054602D0044B1B781C44FFF7EEFF50
:100FE000401BA042FAD338BD00000020074AD36856
:100FF0004FF6FF010B40000243F0BF6300F4E060D6
:1010000043F400330343D360704700BF00ED00E0BA
:10101000184BDB68C3F3022330B4C3F10705042D7A
:1010200003F1040428BF0425062C19D9033B4FF013
:10103000FF349C4022EA04044FF0FF32AA4021EA28
:10104000020101FA03F2224312010028D2B20ADBA4
:1010500000F1604000F5614080F8002330BC70472B
:1010600000242346E8E7044B00F00F0003441A76FF
:1010700030BC704700ED00E0FCEC00E000F01F0128
:1010800001234009024A8B4042F82030704700BFDC
:1010900000E100E04309203300F01F000122034972
:1010A00002FA00F041F82300704700BF00E100E0C1
:1010B0000138B0F1807F0ED2084B10B4084C586054
:1010C000F02084F823000022072110469A6019605E
:1010D0005DF8044B70470120704700BF10E000E04E
:1010E00000ED00E0044A136804280CBF43F0040339
:1010F00023F004031360704710E000E0704700BF66
:1011000008B5FFF7FBFF08BDF8B50446FFF756FF2B
:10111000002C54D00222236884F835201A6800215C
:1011200022F0010284F8341005461A6005E0FFF74A
:1011300045FF401B05283BD823681A68D107F6D421
:10114000D4E90126D4E90351324360691F682A4378
:10115000D4E906650A430243216A354832432A43EB
:101160000A43616A3840042942EA000229D01A6021
:101170005A6922F007021143DAB22E485961103A37
:10118000A0FB021212092C4923F47F73895CE165EC
:1011900023F00303032A88BF04333F228A4001253A
:1011A0000021A36508469A60616584F83550F8BD52
:1011B000032320226265184684F83530F8BD0120EB
:1011C000F8BDD4E90B0101430A43A56A1A605A69C4
:1011D00045F0040122F0070211430028CCD07EB173
:1011E000B6F5005F16D0022D03D9032DC4D1C2017C
:1011F000C2D5012340226265184684F83530F8BD17
:10120000012D03D0F3D3022DB6D1F0E7B0F1C07FAA
:10121000B2D1EEE7032DAFD801A252F825F000BFFE
:10122000F3110008EF110008F31100080D12000877
:101230003F8010F0ABAAAAAAE8B7000890F83530B2
:10124000022B03D0802343650120704702680523E9
:1012500080F83530136823F00103136000207047D5
:10126000F0B583B00023876D0193C36D3D68654978
:1012700008229A402A4204460E6803D00168086892
:10128000400759D401229A402A4203D02168496973
:10129000080674D404229A402A4203D021680968BF
:1012A000890766D410229A402A4203D02168086830
:1012B00000074BD420229A402A4214D021680868A3
:1012C000C00610D5BA6094F83520052A63D00B68A3
:1012D00013F4802F0B687ED0190340F18980E36BF3
:1012E0000BB120469847636D23B3636DDA071AD5B7
:1012F0000523226884F835301368434923F001033D
:10130000A1FB06161360B60A02E01368DB0704D5DA
:10131000019B0133B3420193F7D90022012384F8E2
:10132000342084F83530E36C23B1204603B0BDE8A7
:10133000F040184703B0F0BD086820F004000860D2
:10134000BA60626D42F0010262659BE7BA600A68AA
:1013500012F4802F0A6818D1D20503D40A6822F04B
:1013600008020A60226C002AA4D020469047E36D50
:10137000A0E7BA60626D42F00402626592E7BA606B
:10138000626D42F00202626584E71103EAD5A26C45
:10139000002AEAD18EE70A68206C22F016020A6061
:1013A0004A6922F080024A6138B30A6822F00802D2
:1013B0000A603F22216D02FA03F300200122BB6084
:1013C00084F8340084F835200029B3D0204603B0D7
:1013D000BDE8F040084713F4807380D10A6801200B
:1013E00022F010020A6084F8343084F8350076E781
:1013F000636C002B7FF475AF75E7A26C002AD4D123
:10140000D7E700BF60010020B5814E1B2DE9F04FEA
:10141000DFF860C2DFF86082D1F800E083B0002519
:1014200003E00135102D00F0A4800123AB400EEA4B
:101430000304A342F5D14E6826F0100ABAF1020F58
:1014400000F09A804FEA45090322D0F800B002FA72
:1014500009F2D24306F0030702EA0B0B07FA09F779
:101460000AF1FF3A47EA0B07BAF1010F076040F2B1
:10147000A980C7688B683A4003FA09F31343C36035
:10148000F300CED500230193D8F8443043F48043D1
:10149000C8F84430D8F8443025F0030202F1804205
:1014A00003F4804302F59C32019305F00307019B8E
:1014B000D2F80890BF000F23BB4029EA030A674B0C
:1014C00098422ED003F58063984200F08E80644BE2
:1014D000984200F09180634B984200F09480624BF8
:1014E000984200F09780614B984200F0A180604BD9
:1014F000984200F0A480DFF88491484500F0918084
:10150000DFF87C91484500F0A180DFF878914845EC
:101510000CBF4FF009094FF00A0909FA07F74AEA28
:10152000070AC2F808A0DCF80030E243F70354BF12
:1015300013402343CCF80030DCF80430B70354BF29
:1015400013402343CCF80430DCF80830F70254BFD2
:1015500013402343CCF80830DCF80C30B60205F118
:10156000010554BF13402343102DCCF80C307FF4F9
:101570005CAF03B0BDE8F08F4FEAD50900EB8909F5
:1015800005F00707D9F82020BF004FF00F0B0BFA2A
:1015900007FB22EA0B0A0A69BA4042EA0A02C9F8C2
:1015A00020204FEA45090322D0F800A002FA09F2F0
:1015B000D24306F0030702EA0A0A07FA09F747EAE4
:1015C0000A070760876807EA020ACF6807FA09F77F
:1015D00047EA0A078760D0F804A0C6F300172AEA92
:1015E0000303AF401F43476043E74FF0010909FA87
:1015F00007F74AEA070A94E74FF0020909FA07F7E2
:101600004AEA070A8DE74FF0030909FA07F74AEAA1
:10161000070A86E74FF0040909FA07F74AEA070ABA
:101620007FE74FF0070909FA07F74AEA070A78E760
:101630004FF0050909FA07F74AEA070A71E74FF080
:10164000060909FA07F74AEA070A6AE74FF00809A4
:1016500009FA07F74AEA070A63E700BF00000240F9
:1016600000080240000C024000100240001402403A
:1016700000180240003C014000380240001C0240BB
:1016800000200240002402400369194214BF0120D7
:101690000020704702B9090481617047044A51690A
:1016A000014200D1704708B5506107F00BF908BD41
:1016B000003C0140002800F0CA812DE9F04F0446AB
:1016C0004FF0030A8BB0064680F8B9A304F0B4F8D3
:1016D000206802F0A1FA56F8107B0FCE6D460FC5B8
:1016E0000FCE0FC596E8030085E8030004F1040857
:1016F00098E80E00384602F02BFA0021206802F02C
:1017000093FA40F201174FF4807C4FF4817040F25D
:1017100003114FF4827240F205130025A4F838C07B
:10172000A4F85470A4F87000A4F88C10A4F8A820B1
:10173000A4F8C4304FF4837940F2071E4FF4847C40
:1017400040F209174FF4857040F20B114FF4867286
:1017500040F20D13A4F8E09084F83B50C4E9105512
:10176000E56484F85750C4E91755A56684F87350AA
:10177000C4E91E55C4F8845084F88F50C4E9255537
:10178000C4F8A05084F8AB50C4E92C55C4F8BC5040
:1017900084F8C750C4E93355C4F8D85084F8E350EE
:1017A000C4E93A55A4F8FCE0A4F818C1A4F83471CF
:1017B000A4F85001A4F86C11A4F88821C4F8F450DE
:1017C00084F8FF50C4F80451C4F80851C4F810510B
:1017D00084F81B51C4F82051C4F82451C4F82C518A
:1017E00084F83751C4F83C51C4F84051C4F848510A
:1017F00084F85351C4F85851C4F85C51C4F864518A
:1018000084F86F51C4F87451C4F87851C4F8805109
:1018100084F88B51C4F89051C4F89451C4F89C5189
:10182000A4F8A431276884F8A7514FF001090220D9
:101830000421052206234FF4877CA4F8C0C1C4F814
:10184000AC51C4F8B051C4F8B85184F8C351C4F8CD
:10185000C851C4F8CC51C4F8D451A4F8F851E58764
:1018600084F8FB51C4F80052C4F80452C4F80C5276
:101870004FF0070BC7F804514FF0080E84F81752C9
:10188000C4F81C52C4F82052C4F82852A4F8149288
:10189000A4F85A904FF0090CC7F80851A4F8300288
:1018A000A4F8760084F83352C4F83852C4F83C5295
:1018B000C4F844520A20C7F80C51A4F84CA2A4F86A
:1018C00092A084F84F52C4F85452C4F85852C4F845
:1018D00060524FF00E0AC7F81051A4F86812A4F82D
:1018E000AE1084F86B52C4F87052C4F87452C4F845
:1018F0007C520B21C7F81451A4F88422A4F8CA2002
:1019000084F88752C4F88C52C4F89052C4F89852A4
:101910000C22C7F81851A4F8A032A4F8E6300D2321
:1019200084F8A352C4F8A852C4F8AC52C4F8B45214
:10193000C7F81C5184F8BF52C4F8C452C4F8C85246
:10194000C4F8D052A4F8BCB2A4F802B1C7F8205130
:10195000A4F8D8E2A4F81EE184F8DB52C4F8E052FF
:10196000C4F8E452C4F8EC5204F1100EC7F8245144
:10197000A4F8F4C2A4F83AC184F8F752C4F8FC52AF
:10198000C4F80053C4F80853C7F82851A4F810034A
:10199000A4F8560184F81353C4F81853C4F81C5320
:1019A000C4F82453C7F82C51A4F82C13A4F87211CE
:1019B00084F82F53C4F83453C4F83853C4F8405350
:1019C000C7F83051A4F84823A4F88E2184F84B536B
:1019D000C4F85053C4F85453C4F85C53C7F8345196
:1019E00084F86753A4F86433A4F8AA31C4F86C539C
:1019F000C4F87053C4F87853C7F8385184F8835347
:101A0000A4F880A3BEE80F00EC46C4F88853C4F8DD
:101A10008C53C4F89453A4F8C6A1C7F83C51ACE861
:101A20000F00BEE80F00ACE80F0096E803008CE85A
:101A30000300384698E80E0002F010F984F8B993D4
:101A4000206802F079FC28460BB0BDE8F08F012039
:101A5000704700BF90F8B833012B0ED010B50123AA
:101A6000044680F8B833006802F05AFC206802F09F
:101A7000CBF8002084F8B80310BD0220704700BFE7
:101A80002DE9F04F066887B00446304602F090FC1E
:101A900010B107B0BDE8F08F0546206802F058FC91
:101AA0000028F6D0206802F053FC10F0020F2068E6
:101AB0001EBF436903F00203436102F049FC10F4C6
:101AC0000027206840F0AA8102F042FC430300F1A5
:101AD000F180D4F800B0584602F03AFC0028C0F279
:101AE0001682206802F034FC000548D4206802F019
:101AF0002FFCC20472D4206802F02AFC10F4005FAC
:101B0000206840F0B08002F023FC10F0100F206835
:101B100011D0836923F010038361356AC5F3434311
:101B2000022B05F00F0839D0062B00F031828369B3
:101B300043F01003836102F00BFC030700F1BC814A
:101B4000206802F005FCC60200F1AC81206802F0BA
:101B5000FFFB850200F1B981206802F0F9FB40002B
:101B600000F19F80206802F0F3FB410791D52368C4
:101B70005D686A070DD45A682A435A6089E7D6F827
:101B80000838D90726D42068436903F40063436109
:101B9000ADE7204603F0E2FE2368ECE747F6F0737A
:101BA0001D42C4D0C8EBC80804EB8808C5F30A1569
:101BB0002A463046D8F8041202F05AFBD8F804221C
:101BC000D8F8103220682A442B44C8F80422C8F8F8
:101BD0001032ACE7204603F099FED4E706F5006822
:101BE000D8F80430206823F001031021C8F804302D
:101BF00002F0EEF8606850B106F51063FF2201357F
:101C000085429A60C3F8082203F12003F7D14FF010
:101C1000FF33C8F81830D8F81C30226B43F001139A
:101C2000C8F81C30002A00F08981D8F8843043F0CD
:101C30000B03C8F88430D8F8443043F00B03C8F8DD
:101C40004430D6F80038217C206823F4FE63C6F8BF
:101C5000003804F56F7202F0CBFB2068436903F48F
:101C60008053436148E702F0A7FB2068C36823F470
:101C70007053C36002F0BEF8002840F06C81226807
:101C8000E060D3684FF4007143F410536161D36096
:101C9000204603F02BFE2068436903F400534361A0
:101CA00031E7204603F056FE2068436903F0804385
:101CB000436158E7206802F057FB8146002800F096
:101CC0008581D4F800B0049506F51063CDE902369D
:101CD000A24600275E4607E05FEA590907F10107BF
:101CE0000AF11C0A00F00F8119F0010FF4D05FFA1D
:101CF00087F83046414602F049FBC607054640F1E9
:101D0000FA80039B2069012202FA07F1D3F83428F4
:101D100022EA0101029AC3F8341802EB4712134673
:101D2000012290429A6004D1DAE910231344CAF8E0
:101D300044304146204603F0CBFD21692668012945
:101D400000F0CD80280704D5029B03EB471308223F
:101D50009A60E90604D5029B03EB471310229A60B0
:101D60006A0604D5029B03EB471340229A60AB0737
:101D700004D5029B03EB471302229A602D06ABD5D4
:101D8000DAE9130C06EB471BDAF84020DBF81819E8
:101D900005960BF5106BA0EB0C0393421D4628BF74
:101DA000154689B205F1030EB1EB9E0F29D96045A6
:101DB00027D930B3DAF844101D4606E0DAF84C2093
:101DC0009A421DD9D51ADAF84020237C0093954217
:101DD00028BF1546ABB24246304602F033FADBF874
:101DE0001820DAF84410DAF85030E81C92B229448E
:101DF0002B44B2EB900FCAF84410CAF85030DDD82B
:101E00002668002D7FF468AF059B0122D3F83418B3
:101E1000BA4021EA0202C3F834285DE702F09CFAD6
:101E20008046002800F0D6802068002706F530693B
:101E300005E05FEA580807F101073FF445AE18F0E6
:101E4000010FF6D05FFA87FB594602F095FA10F0C1
:101E5000010F82461ED02369012109EB47128B42F4
:101E6000916010D1C7EBC70304EB83031169D3F86A
:101E70000002D3F80422C1F31201411A0244C3F84C
:101E80001012C3F804225946204603F017FD2169B9
:101E9000012971D01AF0080F48D11AF0100F2CD177
:101EA0002068C6E72046F9B203F050FD2068436978
:101EB00003F4801343614AE6204603F013FD2068D3
:101EC000436903F0080343613BE62046F9B203F09F
:101ED00039FD2068436903F4001343613DE6002F98
:101EE0007FF430AFE36C002B7FF42CAF304604F569
:101EF0006F7202F07DFA266824E709EB471310227F
:101F000020689A6095E7B346049D039EE3E5D6F802
:101F1000042822F001022046C6F8042803F00EFD32
:101F20002068436903F000434361DBE5204603F08A
:101F3000BFFC09EB471308229A60AEE7D8F81430CB
:101F400043F00B03C8F81430D8F8103043F00B03FB
:101F5000C8F8103075E603224023E260636100F0A8
:101F600081FC454B454A0344934224D82268D368F8
:101F700043F47053D3608BE6002F8BD1D4F80C322E
:101F8000002B87D104F56F72206802F031FA81E7E7
:101F9000082204F56F713046C8EBC80802F068F9F2
:101FA00004EB8802C5F30A13D2F8101220680B4420
:101FB000C2F81032BBE5324A3249236802448A42F1
:101FC0000BD8DA6842F46052DA6061E60746D4F86A
:101FD00000B080E50746206876E5A0F574022A493E
:101FE000A2F510528A4204D8DA6842F45052DA60FC
:101FF0004EE6A0F183722549A2F5E7428A4204D851
:10200000DA6842F44052DA6042E6214A2149024449
:102010008A4204D8DA6842F43052DA6038E61E4A5E
:102020001E4902448A4204D8DA6842F42052DA6037
:102030002EE61B4A1B4902448A4204D8DA6842F45D
:102040001052DA6024E6A0F1B7721749A2F558528F
:102050008A4204D8DA6842F40052DA6018E6134A79
:10206000134902448A42DA6894BF42F4E05242F4CF
:10207000C052DA600CE600BF405327FFFF340C006B
:10208000401E1BFF3F420F007F4F12001FD6130060
:1020900060B6E5FE5FE3160000D3CEFE3F771B007F
:1020A000C05BB3FEBF9121001F753800E05459FE9C
:1020B000DF9C410090F8B833012B0BD010B5012301
:1020C000044680F8B833006802F01AF9002084F85A
:1020D000B80310BD0220704770B50C0601F07F05F3
:1020E00024D4C1EBC10400EB84041C2606FB0101CF
:1020F000002684F8F851C4F8002284F8FB3184F8F3
:10210000F96101F5FC71022B04BF00230B7190F8FB
:10211000B833012B1CD00123044680F8B833006883
:1021200001F084FE002084F8B80370BDC5EBC5043F
:1021300000EB84041C2101FB05012264012284F8C8
:10214000385084F83B30E58784F839203831DAE7B5
:10215000022070BD4BB2002B10B501F07F0216DBE0
:102160001C2404FB010101F5FC71DB0F4B700A70AC
:1021700090F8B833012B15D00123044680F8B8330A
:10218000006801F093FE002084F8B80310BD1C2104
:1021900001FB02013831DB0F4B700A7090F8B83345
:1021A000012BE9D1022010BD38B501F07F05C5EB48
:1021B000C50400EB84040021C4F80422C4F8101202
:1021C00084F8F911C4F80C3284F8F85103691C2121
:1021D00001FB0501012B08BFC4F8082201F5FC71C1
:1021E0000068DAB21DB101F0BFFE002038BD01F079
:1021F000A5FF002038BD00BF01F00F01C1EBC101F8
:1022000000EB8101B1F81002704700BF70B501F01A
:102210007F05C5EBC50400EB840401210026626440
:1022200084F83910E36484F83850266503691C216A
:1022300001FB0501012B08BFA26438310068DAB246
:102240001DB101F091FE002070BD01F077FF00206C
:1022500070BD00BF38B54BB2002B01F07F0522DB0B
:102260001C2202FB010101F5FC71DB0F01224B7006
:102270000D708A7090F8B833934219D0044680F8F4
:10228000B823006802F008F81DB1002084F8B803F4
:1022900038BD04F56F72217C206802F0A9F8002097
:1022A00084F8B803F4E71C2101FB05013831DCE7B1
:1022B000022038BD38B54BB2002B01F07F0218DB8D
:1022C0001C2404FB010101F5FC71DB0F00254B70A0
:1022D0000A708D7090F8B833012B0FD0044601239B
:1022E00080F8B833006801F0F3FF84F8B85328464B
:1022F00038BD1C2101FB02013831E6E7022038BD60
:1023000030B4056812046C6AC9B1AB6A013904EBD8
:1023100013440CD000231846403005EB80000133F5
:102320004068DBB28B4204EB10441846F4DB4031CA
:1023300005EB810114434C60002030BC704714430E
:10234000AC62002030BC70470368002059627047BF
:10235000002800F032812DE9F0410368DD0782B0EA
:1023600004462FD5AC498A6802F00C02042A00F01A
:10237000EA808A6802F00C02082A00F0E0806368B4
:10238000B3F5803F00F0E980B3F5A02F00F0548151
:10239000A14D2A6822F480322A602A6822F4802221
:1023A0002A60002B40F0DE80FEF708FE064605E0BE
:1023B000FEF704FE801B642800F2F2802B689B036A
:1023C000F6D423689F0775D41A0715D56369002BC7
:1023D00000F0A580914B904D01221A60FEF7EEFDB2
:1023E000064605E0FEF7EAFD801B022800F2D880D1
:1023F0006B6F9B07F6D5236858073BD5864A136C4D
:1024000013F0805340F0DB800193136C43F0805352
:102410001364136C03F080530193019B0126804DDC
:102420002A68D10540F1AC80A368012B00F0C98077
:10243000052B00F00B81784D2A6F22F001022A67EC
:102440002A6F22F004022A67002B40F0BF80FEF7BB
:10245000B5FD41F28837804606E0FEF7AFFDA0EB00
:102460000800B84200F29C802B6F9807F5D4002E2C
:1024700040F0DC80A269CAB1674DA96801F00C0187
:10248000082948D0022A674A4FF00001116000F085
:10249000E780FEF793FD2C46054604E0FEF78EFD2F
:1024A000401B02287CD823689B01F7D4002002B08F
:1024B000BDE8F081584A916811F00C0F24D0916862
:1024C00001F00C0108291CD0E368002B00F0928079
:1024D000554B514D01221A60FEF770FD064604E08F
:1024E000FEF76CFD801B02285AD82B689807F7D599
:1024F0002B68226923F0F80343EAC2032B602368A8
:1025000062E752685602DFD4434A126895074BD5FA
:10251000E268012A48D0012002B0BDE8F0813F4ABC
:102520003D4D1360FEF74AFD064604E0FEF746FD0A
:10253000801B022834D86B6F9F07F7D45BE74A688B
:1025400050027FF51CAF344A126891037FF53AAF11
:102550006268002A7FF436AFDDE72F4A136843F440
:1025600080331360FEF72AFD2B4D064604E0FEF78C
:1025700025FD801B642813D82B689A03F7D520E724
:102580002A6842F480722A60FEF718FD07462B681D
:10259000DA053FF549AFFEF711FDC01B0228F6D959
:1025A000032002B0BDE8F0811B4920690A6822F0CF
:1025B000F80242EAC0020A6006E7012070470026DE
:1025C0002DE7154A136F43F001031367FEF7F6FC7E
:1025D000114D804641F2883705E0FEF7EFFCA0EB95
:1025E0000800B842DCD82B6F9B07F6D5002E3FF4CD
:1025F00041AF1BE00C4A084D1360FEF7DFFC0646B6
:1026000004E0FEF7DBFC801B0228C9D82B68990781
:10261000F7D42368D8E600BF00380240800E474256
:10262000007000406000474200004742234A136C9C
:1026300023F0805313641DE7204B1A6842F4802274
:102640001A601A6842F480321A608BE71B4B1A6FCB
:1026500042F004021A671A6F42F001021A67B5E7E6
:10266000FEF7ACFC064604E0FEF7A8FC801B02283F
:1026700096D82B689901F7D4D4E90736D4E9090232
:10268000E16A0E4C334343EA8013520843EA016384
:10269000013A0B4943EA024301226B600A60FEF7EC
:1026A0008DFC054605E0FEF789FC401B02283FF63D
:1026B00077AF23689A01F6D5F8E600BF00380240EC
:1026C00060004742174908B58B6803F00C03042BE0
:1026D0001BD0082B17D14A684B6813F4800302F013
:1026E0003F0214D149681048C1F38811A1FB0001D1
:1026F000FEF73AFA0B4B5B68C3F3014301335B000F
:10270000B0FBF3F008BD084808BD084808BD4B6899
:102710000648C3F38813A3FB00010023FEF724FA45
:10272000E8E700BF003802400024F40000127A00FD
:1027300060B1484A136803F00F038B4208D2CBB252
:102740001370136803F00F038B4201D00120704710
:1027500003682DE9F0419D0714D55C0704D53E4C74
:10276000A26842F4E052A2601A0704D53A4CA2686B
:1027700042F46042A260384C8568A26822F0F00200
:102780002A43A260DF0704460D4622D54268012A8B
:1027900056D0931E012B304B1B6858D9990725D56D
:1027A0002D4EB36823F003031343B360FEF706FC1A
:1027B00041F28837804605E0FEF700FCA0EB0800F8
:1027C000B84242D8B368626803F00C03B3EB820FDF
:1027D000F2D1204A136803F00F03AB4209D9EBB2E0
:1027E0001370136803F00F03AB4202D00120BDE861
:1027F000F08123685A0706D51749E0688A6822F4F1
:10280000E05202438A601B0711D4FFF75BFF124BB3
:1028100012499B68124AC3F30313CB5C20FA03F3FB
:102820000020136002F00AFF0020BDE8F0810A4A90
:102830002169936823F4604343EAC1039360E4E7AA
:10284000054B1B689E03ABD4D0E70320EDE798014E
:10285000A6D4CBE7003C024000380240F0B70008A5
:1028600060010020014B1868704700BF6001002024
:10287000044B054A9B680549C3F382230868D35C6F
:10288000D84070470038024000B8000860010020BE
:10289000044B054A9B680549C3F342330868D35C7F
:1028A000D84070470038024000B80008600100209E
:1028B0000E4B0F2202609A6802F0030242609A688F
:1028C00002F0F00282609A6802F4E052C2609B68F3
:1028D000DB0810B403F4E053054C036123685DF892
:1028E000044B03F00F030B60704700BF0038024039
:1028F000003C0240A0B1437910B503F0FF0204464A
:1029000053B12268022363711368012143F0040369
:1029100013600020617110BD027102F0A1FDF0E7AB
:102920000120704700283BD090F85120002370B55B
:1029300002F0FF010446836262B31846D4E9013510
:10294000D4E903212B4313436269E569266A0B43EB
:102950001343A26921682B43022584F85150334365
:1029600002F400750E682B43120C656A02F0040233
:1029700003432A4326F040060E600B604A60CB6991
:10298000002223F400630125CB611046626584F8C0
:10299000515070BD80F8501002F07AFDA06ACDE76A
:1029A000012070472DE9F0410D4690F850100129A3
:1029B00082B072D01E46012380F85030044617467C
:1029C000FEF7FCFA804694F85100C0B2012809D005
:1029D00002200122002384F8512084F8503002B0F4
:1029E000BDE8F081002DF4D0002FF2D0A36820685C
:1029F0002563032284F85120B3F5004F4FF0000205
:102A00006265A263A287C4E91022E786A786E287EF
:102A1000024603D1036843F4804303600368590608
:102A20003FD5E3686168B3F5006F00F0B08000291E
:102A300051D115F8013B0373E38E2068013B9BB233
:102A4000E3860246711C31D0002E52D0E38E9BB239
:102A500073B183689A0755D4FEF7B0FAA0EB08006B
:102A600086424DD9E38E20689BB20246002BF0D1FE
:102A7000771C51D183689D07FCD583681A06FCD466
:102A8000A3682BB90193C368019383680193019BE9
:102A9000606D003018BF01209BE7022002B0BDE846
:102AA000F081036843F040030360BAE7E38E9BB212
:102AB000002BDDD083689B07F8D515F8013B037325
:102AC000E38E2068013B9BB2E386E38E9BB2024615
:102AD000002BEFD1CCE7E38E9BB2012BB2D1A8E75C
:102AE00015F8013B0373E38E2068013B9BB2E3863C
:102AF0000246E38E9BB2002BBAD083689F07EFD4C7
:102B0000032066E715F8013B0373E38E2068013B61
:102B10009BB2E386024699E78368990713D4002E97
:102B200000F08A80FEF74AFAA0EB0800864240F2E5
:102B30008280206802469BE7FEF740FAA0EB08007F
:102B40008642206804D983681B0699D5002EF3D1EC
:102B50004368626823F0E003B2F5827F436000F0CF
:102B60009080A36AB3F5005F08D103684DF6FF7249
:102B700013400360036843F400530360012084F8AA
:102B80005100636D202213436365626521E70029CC
:102B900049D0E38E9BB2012B45D0771C16D0002E76
:102BA0002FD0E38E9BB2002B3FF462AF836899076E
:102BB00031D4FEF703FAA0EB08008642A0D9E38ED9
:102BC00020689BB20246002BF0D151E7E38E9BB206
:102BD000002B3FF44DAF83689B07F7D535F8023BD8
:102BE000C360E38E013B9BB2E386E38E9BB2002B76
:102BF000F1D13DE735F8023BC360E38E013B9BB268
:102C0000E386E38E9BB2002B3FF432AF83689B07D1
:102C10007FF576AFEEE735F8023BC360E38E013B0C
:102C20009BB2E386BDE735F8023BC360E38E013B10
:102C30009BB2E386B1E722685368616823F0E00342
:102C4000B1F5827F536010D0A36AB3F5005F08D15D
:102C500013684DF6FF710B401360136843F4005383
:102C60001360012384F851304AE7A368B3F5004F9D
:102C700002D0B3F5806FE7D1136823F040031360EF
:102C8000E2E7A368B3F5004F03D0B3F5806F7FF49C
:102C900068AF036823F04003036062E790F85100D7
:102CA000704700BF002858D090F8393070B503F055
:102CB000FF020446B3B32368354DE0686168022221
:102CC00084F83920AB421A6849D0B3F1804F52D012
:102CD000A5F57C45AB422AD005F58065AB4226D0F0
:102CE00005F58065AB4222D005F57845AB421ED094
:102CF00005F57055AB4213D005F58065AB420FD09A
:102D000005F58065AB420BD0A5F59835AB4207D0F1
:102D100005F58065AB4203D005F58065AB4232D145
:102D200025692DE080F8382002F0E6FBC3E7A568AE
:102D3000266922F070022A43164D22F44072324373
:102D4000AB421A60D862996201D162691A630122AA
:102D50005A61002084F8392070BD01207047A668B0
:102D6000256922F07002324322F440722A431A602D
:102D7000D8629962E9E7A668256922F070023243B9
:102D800022F440722A431A60D8629962DFE700BFDA
:102D900000000140000401400368DA6842F00102CB
:102DA000DA601A6842F001021A600020704700BF22
:102DB000704700BF002858D090F8393070B503F044
:102DC000FF020446B3B32368354DE0686168022210
:102DD00084F83920AB421A6849D0B3F1804F52D001
:102DE000A5F57C45AB422AD005F58065AB4226D0DF
:102DF00005F58065AB4222D005F57845AB421ED083
:102E000005F57055AB4213D005F58065AB420FD088
:102E100005F58065AB420BD0A5F59835AB4207D0E0
:102E200005F58065AB4203D005F58065AB4232D134
:102E300025692DE080F83820FFF7BAFFC3E7A568C1
:102E4000266922F070022A43164D22F44072324362
:102E5000AB421A60D862996201D162691A63012299
:102E60005A61002084F8392070BD01207047A6689F
:102E7000256922F07002324322F440722A431A601C
:102E8000D8629962E9E7A668256922F070023243A8
:102E900022F440722A431A60D8629962DFE700BFC9
:102EA000000001400004014090F83830012B00F090
:102EB0009C80F0B50223012480F8384080F8393036
:102EC0000C2A28D8DFE802F0072727274F272727D3
:102ED000702727272F000368D1F808E01D6A0F68C4
:102EE0005C4E25F001051D621A6AD3F804C09C6986
:102EF00022F0020224F07304B34242EA0E0244EAD2
:102F0000070474D0544DAB4271D04968C3F804C073
:102F10009C6159631A620023012280F8392080F8ED
:102F200038301846F0BD0368D1F808C01D6A0F6834
:102F3000484E25F480551D621A6A5D68DC6922F4EA
:102F4000005224F4E644B34242EA0C3244EA072435
:102F50006AD006F58066B34266D049685D60DC6180
:102F600019641A62D7E70368D1F808E01D6A0F6890
:102F7000384E25F010051D621A6AD3F804C09C690A
:102F800022F0200224F4E644B34242EA0E1244EA5C
:102F900007243AD0304DAB4237D04968C3F804C05B
:102FA0009C6199631A62B6E70368D1F808E01D6A6C
:102FB0000F68284E25F480751D621A6AD3F804C084
:102FC000DC6922F4007224F07304B34242EA0E2258
:102FD00044EA07042ED0204DAB422BD04968C3F8F9
:102FE00004C0DC61D9631A6295E702207047D1E919
:102FF0000556CF6822F008022CF4407C3A43354352
:1030000022F0040245EA0C0C7FE7D1E90556CF68AF
:1030100022F080022CF4406C42EA0712354322F081
:1030200040024CEA850CB8E74E6925F4804545EA34
:10303000861592E7D1E90556CF6822F400622CF498
:10304000405C42EA0722354322F480624CEA051CC8
:10305000C4E700BF000001400004014090F8383090
:10306000012B67D002220368F0B480F839209A68F7
:103070000C6822F47F4222F077020125402C80F870
:1030800038509A6000F0938018D9702C7FD02BD9DB
:10309000B4F5805F76D0B4F5005F1CD1D1E9015260
:1030A000CC6899682A4342EA042221F47F410A430A
:1030B0009A609A6842F480429A600CE0102C42D0E8
:1030C0002FD9202C38D0302C05D19A6822F07002EC
:1030D00042F037029A600023012280F8392080F8FC
:1030E0003830F0BC18467047502C33D0602CF2D1E9
:1030F0001C6A4D68CE6824F010041C6299691A6A33
:1031000021F4704122F0A00242EA051241EA0631A0
:1031100099611A629A6822F0700242F067029A601E
:10312000D9E7002CD7D19A6822F0700242F007024A
:103130009A60D0E7022070479A6822F0700242F04D
:1031400027029A60C7E79A6822F0700242F01702DD
:103150009A60C0E71D6A1E6A4C68CF6826F00106B7
:103160001E629A6925F00A0122F0F00242EA071273
:1031700021439A6119629A6822F0700242F0570264
:103180009A60A8E79A6822F007029A60A3E7D1E95B
:103190000152CC6899682A4342EA042221F47F4113
:1031A0000A439A609A6842F077029A6093E71D6A30
:1031B0001E6A4C68CF6826F001061E629A6925F0E7
:1031C0000A0122F0F00242EA071221439A611962D1
:1031D0009A6822F0700242F047029A607BE700BFD3
:1031E00090F83830012B45D002220368F0B480F803
:1031F0003920D1E900459A6822F070022A4322F072
:1032000007022243502D4FF0010480F838409A60A5
:1032100046D01FD9602D30D0702D0AD1D1E902528D
:103220000C6999682A4342EA042221F47F410A4347
:103230009A60DA6822F04002DA60DA68012400213C
:1032400022F48042DA6080F8394080F83810F0BC0F
:1032500008467047402DECD11D6A1C6A0E6924F0A7
:1032600001041C629A6922F0F00242EA06129A6195
:103270001D62DEE70223184670471C6A8D680E69DE
:1032800024F010041C6299691A6A21F4704122F03A
:10329000A00241EA063142EA051299611A62C8E7C2
:1032A0001D6A1E6A8C680F6926F001061E629A6903
:1032B00025F00A0122F0F002214342EA07129A6146
:1032C0001962B6E7704700BF704700BF704700BF84
:1032D000704700BF03681A69910710B5044602D50C
:1032E000DA6892075FD41A69500702D5DA68510785
:1032F00046D41A69120702D5DA6810072ED41A6963
:10330000D20602D5DA68D00618D41A69D10702D5D8
:10331000DA68D2075DD41A69100602D5DA68110698
:103320005FD41A69520602D5DA68500661D41A6968
:10333000910602D5DA68920643D410BD6FF01002F0
:103340001A61DB69082213F4407F2276204664D09C
:10335000FFF7BAFF002223682276D6E76FF0080253
:103360001A61DB69042299072276204652D1FFF7C1
:10337000A9FF2046FFF7AAFF002223682276BEE7B6
:103380006FF004021A619B69022213F4407F2276D7
:1033900020463CD1FFF796FF2046FFF797FF00221B
:1033A00023682276A5E76FF002021A619B69012269
:1033B0009B07027625D0FFF787FF0022236822763D
:1033C00091E76FF0200220461A61BDE8104000F03E
:1033D0007BB86FF001021A61204602F005F82368FD
:1033E00099E76FF080021A61204600F06FF82368B9
:1033F00097E76FF040021A612046FFF769FF2368E4
:1034000095E7FFF75FFF2046FFF760FFD5E7FFF77F
:103410005BFFC4E7FFF758FFAEE7FFF753FF204617
:10342000FFF754FF96E700BF90F83830012B1ED00D
:1034300002460220136870B482F839005C6824F0F8
:103440007004D1E900565C60586828435860986859
:1034500020F080009860996800240125314399602C
:10346000204682F8395082F8384070BC70470220FC
:10347000704700BF90F83830012B21D030B4D1E92B
:103480000253D1E9002423F440732B4323F48063D7
:10349000234323F40063D1E90454134323F48053FA
:1034A0002B4323F4005389690268234323F44043E8
:1034B0000B430021536430BC80F838100846704735
:1034C00002231846704700BF704700BF704700BF17
:1034D000002800F004812DE9F84390F839300446C3
:1034E00003F0FF02002B00F0F580236826692422F8
:1034F00084F83920D86820F40050D4E90225D86037
:103500001969E06921F4405129431961D968656955
:10351000324321F416412A4321F00C0102430A43AD
:10352000DA605A69A16922F440720A43B0F5004F8B
:103530005A61AA4A71D0934200F0D38002F58062AA
:10354000934200F0CE80FFF793F9A54F636800EB3C
:10355000800000EB80009B00B0FBF3F3A7FB03238C
:103560005B091D01FFF784F9666800EB800000EB42
:103570008000B600B0FBF6F6FFF77AF9636800EB5F
:10358000800000EB80009B00B0FBF3F3A7FB03235C
:103590005B094FF0640909FB13631B013233A7FB7E
:1035A00003235B0903F0F006FFF762F9626800EBA2
:1035B000800000EB80009300B0FBF3F8FFF758F9B0
:1035C000D4E9002100EB80008B0000EB8000B0FB11
:1035D000F3F3A7FB03135B0909FB13831B013233CE
:1035E000A7FB0313C3F3431333432B4493601369C3
:1035F00023F490431361536923F02A035361D36882
:103600000025202143F40053D3602846E56384F865
:10361000391084F83A10BDE8F883934200F09F8097
:1036200002F58062934200F09A80FFF721F96C4F17
:10363000636800EB800000EB80005B00B0FBF3F3FD
:10364000A7FB03235B091E01FFF712F9656800EB76
:10365000800000EB80006D00B0FBF5F5FFF708F986
:10366000636800EB800000EB80005B00B0FBF3F3CD
:10367000A7FB03235B094FF0640909FB1353DB002D
:103680003233A7FB03231B0903F4F875FFF7F0F8A7
:10369000626800EB800000EB80005300B0FBF3F8A1
:1036A000FFF7E6F8D4E9002100EB80004B0000EBC7
:1036B0008000B0FBF3F3A7FB03135B0909FB138343
:1036C000DB003233A7FB0313C3F3421333442B4411
:1036D00093608CE780F8382001F042FF05E7012075
:1036E0007047FFF7D5F83E4F636800EB800000EBB2
:1036F00080009B00B0FBF3F3A7FB03235B091D01D4
:10370000FFF7C6F8666800EB800000EB8000B600AB
:10371000B0FBF6F6FFF7BCF8636800EB800000EB47
:1037200080009B00B0FBF3F3A7FB03234FF0640979
:103730005B0909FB13631B013233A7FB03235B09FE
:1037400003F0F006FFF7A4F8626800EB8000930036
:1037500000EB8000B0FBF3F8FFF79AF830E7FFF7D3
:1037600097F81F4F636800EB800000EB80005B0060
:10377000B0FBF3F3A7FB03235B091E01FFF788F8F7
:10378000656800EB800000EB80006D00B0FBF5F594
:10379000FFF77EF8636800EB800000EB80005B00C1
:1037A000B0FBF3F3A7FB03234FF064095B0909FBAC
:1037B0001353DB003233A7FB03231B0903F4F87513
:1037C000FFF766F8626800EB8000530000EB8000B2
:1037D000B0FBF3F8FFF75CF864E700BF00100140AE
:1037E0001F85EB51F0B50E4690F83910202983B0B3
:1037F0002DD1002E2ED0019262B31F4690F83830A2
:10380000012B044623D00023C3630121212380F828
:10381000381080F83930FDF7D1FB019AA284E28498
:1038200022680546E38C9BB2002B39D0E08CA1685E
:10383000013880B2B1F5805FE08419D0781C3BD1AB
:1038400010680106FCD5337853600136EAE70220A0
:1038500003B0F0BD012003B0F0BD13681B060CD40B
:10386000002F33D0FDF7AAFB401B874222682DD3DF
:10387000781CF2D110680106FCD533882169C3F3A6
:10388000080353600029E0D10236CBE713685B06DA
:103890000BD4DFB1FDF792FB401B8742226815D3A2
:1038A000781CF3D113685906FCD52023002084F836
:1038B000393084F83800CBE713681B06C3D42FB126
:1038C000FDF77CFB401B87422268B7D2D36823F404
:1038D000D073D3605369202123F001030025032016
:1038E000536184F8391084F8385084F83A1003B0E2
:1038F000F0BD00BF704700BF704700BF704700BFFA
:1039000003681A6870B516070446D868596973D0F9
:1039100011F0010179D0D60705D5C50503D5E56BB2
:1039200045F00105E563560702F0020540F19F806E
:1039300069B1E16B41F00201E16302F00806002D7C
:1039400040F09B801EB1E16B41F00801E163E16B47
:10395000002959D0950628D5800626D594F83A2016
:10396000222A22D1A1682069A26AB1F5805F00F005
:10397000D580511C5B68A16208B103F07F0313700E
:103980002368E28D013A92B2E28572B9DA6822F4D4
:103990009072DA605A69202122F001025A612046B1
:1039A00084F83A10FFF7A8FF23685D69E16B090707
:1039B00003D415F0400500F09380DA6822F4907289
:1039C000DA605A69202122F001025A6184F83A1023
:1039D0005A6952065DD55A69606B22F040025A61FD
:1039E000002856D0544B0365FDF728FC60B1606B8E
:1039F000BDE87040036D1847950609D5810607D5C7
:103A000094F83A20222A48D070BD10F4907F82D1D9
:103A100016060ED45106F7D54206F5D5DA682021F0
:103A200022F04002DA60204684F83910FFF762FF86
:103A300070BD0506EED594F83920212AE4D1A1689D
:103A4000226AB1F5805F50D0511C216212785A6011
:103A5000E28C013A92B2E284002AD5D1DA6822F0EF
:103A60008002DA60DA6842F04002DA6070BD4DB17F
:103A700000293FF46CAF02F00806E16B41F004014D
:103A8000E1635FE716077FF562AF00297FF45BAF64
:103A90005DE72046FFF732FF70BDA1682069A26A8A
:103AA000B1F5805F2AD0511C5B68A16208B103F0B8
:103AB0007F031370E38D013B9BB2E385002BA3D101
:103AC0002368DA6822F49072DA605A69202122F0C1
:103AD00001025A61204684F83A10FFF70DFF70BDCD
:103AE0002046FFF70BFFE56370BD11882069C1F325
:103AF0000801596050B902322262A9E75B6840B9F7
:103B0000C3F3080322F8023BA262D3E70132226228
:103B10009EE7DBB222F8013BA262CBE7596828B9E5
:103B2000C1F3080122F8021BA2622AE7C9B222F8F7
:103B3000011BA26225E700BF3D3B000808B5836B6F
:103B40000022DA851846DA84FFF7D8FE08BD00BFE8
:103B500084B030B4089D03AC012D84E80E0031D14F
:103B6000836B0F9A23F480338363C36823F4840345
:103B700023F04003C360C368012A23F44013C360E9
:103B80003AD0204B01E0013B0DD00269002AFADA5D
:103B900002691C4B42F00102026101E0013B02D0CC
:103BA0000269D107FAD4069B012B07D1836843F041
:103BB00006038360836843F02003836030BC0020E9
:103BC00004B07047C2680F4B42F04002C26001E08F
:103BD000013B0DD00269002AFADA0269094B42F072
:103BE0000102026101E0013B02D00269D207FAD46E
:103BF0004FF480338363D6E7C36843F48013C36014
:103C0000BFE700BF400D030002460020936843F069
:103C100001039360704700BF02460020936823F0C1
:103C200001039360704700BF08B5C368012923F002
:103C3000C043C36009D019B9C36843F08043C3606F
:103C40003220FDF7C1F9002008BDC36843F00053DE
:103C5000C3603220FDF7B8F9002008BD84B02DE91B
:103C6000F04107AC84E80E00119C0A9D836B002C88
:103C700040F0878043F4001383630023C0F8003EC4
:103C80000C9BD0F80028C0F80028012B00F5006636
:103C900000F08A80D0F8003843F00303C0F8003801
:103CA0004FF484630361474B01E0013B02D002699A
:103CB0009706FAD410230361424B01E0013B02D086
:103CC0000269D206FAD400224FF0FF3332617261EA
:103CD000B361F26171B3944600F510634FF0FF0ECB
:103CE0004FF090481F680132002FB4BFC3F8008026
:103CF000C3F800C08A42C3F810C0C3F808E003F15B
:103D00002003EFD10022944600F530634FF0FF0E00
:103D10004FF090481F680132002FB4BFC3F80080F5
:103D2000C3F800C08A42C3F810C0C3F808E003F12A
:103D30002003EFD13369012D23F48073336124D044
:103D400000226FF08043826143611DB9836943F0B3
:103D50001003836181691C4B0D9A0B4383611AB177
:103D6000836943F008038361012C05D1836943F023
:103D7000804343F004038361BDE8F041002004B0B8
:103D8000704743F40023836377E7104B3363336B4F
:103D900043F4803343F00303336300226FF0804326
:103DA000316B82614361D5E7099B23B9D0F80038B4
:103DB000C0F8003874E7D0F8003843F00103C0F8C9
:103DC00000386DE7400D030000383C8000018000A2
:103DD000890141F020010161054A01E0013A05D065
:103DE000036913F02003F9D1184670470320704788
:103DF000400D030000F50062D0F8080810F006003E
:103E000012D0936803F00603022B0CD0936803F0E2
:103E10000603062B07D0936803F00603042B14BF98
:103E20000020022070470320704700BF70B44E7816
:103E30000A780123012E03FA02F34FEA421400F537
:103E4000006518D0EA6900F5306042EA0343EB618F
:103E500003591B040CD48A68CD780159C2F30A02B5
:103E600042F0805343F4004343EA85430B4303513C
:103E7000002070BC7047EE699BB2334300F51060C0
:103E8000EB6103591D04F3D48B68CD780159C3F35A
:103E90000A0343F0805343F4004343EA854343EA73
:103EA00082520A430251002070BC704730B44A78F5
:103EB0000C78012A4FEA441325D000F530614FF009
:103EC0000065CA5822F40042CA504FF08042CD50DB
:103ED000CA501944234A01E0013A3FD08B6813F0DD
:103EE0001003F9D100F50062516841F4806151601E
:103EF0004FF48030D16900FA04F421EA0404184632
:103F0000D46130BC704700F510614FF00065CA58AD
:103F100022F40042CA504FF08042CD50CA5019449A
:103F2000104B01E0013B19D08A685500FAD44FF4D8
:103F3000846303610B4B01E0013B02D002699206EE
:103F4000FAD4012303FA04F4D0F81C38A4B223EA0B
:103F50000404C0F81C48002030BC7047032030BC6B
:103F6000704700BF400D03002DE9F04F4D7891F8E8
:103F700000C04B6991F803E0012D4FEA4C164AD07E
:103F800000F5306C0CEB06048D682769FF0CFF040C
:103F90002761276927F0FF5727F4C017276183B3EC
:103FA000654FD4F810802B44013BB3FBF5F307EACF
:103FB000C34747EA08079BB2276105FB03F523695E
:103FC000C5F312051D432561012A04BFCB68636157
:103FD000BEF1010F0CD1D0F8083813F4807F5CF8E3
:103FE00006300CBF43F0005343F080534CF80630CA
:103FF0005CF8063043F004434CF806300020BDE87E
:10400000F08F2369C5F312051D432561236943F42D
:1040100000232361D8E700F5106808EB0604DBB342
:10402000D4F81090D1F808B0434F4FEAD9494FEA7D
:10403000C949C4F81090D4F8109029F0FF5929F418
:10404000C019C4F81090D4F810A00BEB030909F1C3
:10405000FF39B9FBFBF907EAC94747EA0A072761B5
:10406000D4F81090C3F3120747EA0907BEF1010F15
:10407000276151D0012A5CD0D0F8343805FA0CF50C
:104080001D43C0F8345858F8063043F0044348F84C
:1040900006300020BDE8F08F256925F0FF5525F496
:1040A000C0152561256945F4002525612569ED0CBC
:1040B000ED04012A256129D0BEF1010FE3D1D0F82A
:1040C000084814F4807F58F806400CBF44F00054B0
:1040D00044F0805448F8064058F8064044F0044440
:1040E00048F80640002A89D19BB203339A0885D04C
:1040F000CB6800F5805003EB820200EB0C3C53F8D8
:10410000041BCCF800109342F9D177E70F6967617F
:10411000BEF1010FB7D1D2E7256925F0C045256171
:104120002569012A45F000552561C8D10D696561F1
:10413000C5E70B696361A6E70000F81F4B78F0B58F
:104140000C784F69012B4FEA441525D000F53060FB
:1041500043198C681E69F60CF6041E611E6926F070
:10416000FF5626F4C0161E61A7B91E6946F4002644
:104170001E611E69012AC4F3120408BFCA6844EA1A
:1041800006041C6108BF5A61435943F0044343517C
:104190000020F0BD4C61E8E700F510667319CFB35D
:1041A000D3F810C0D1F808E04FEADC4C4FEACC4C11
:1041B000C3F810C0D3F810C02CF0FF5C2CF4C01C66
:1041C000C3F810C0D3F810C0BE454CF4002C38BF63
:1041D000C1F814E0C3F810C038BF7746D3F810E038
:1041E000C7F3120C4CEA0E0CC3F810C056F805C009
:1041F000012A4CF0044C46F805C01FD0002FC7D050
:10420000D0F83428012303FA04F41443C0F83448E6
:104210000020F0BD186920F0FF5020F4C010186194
:10422000186940F4002018611869C00CC0041861B6
:104230007059012A40F004407051A9D10A695A61AD
:104240000020F0BD10B49DF804406CB903339B0806
:104250000AD000F5805000EB023201EB830351F8E5
:10426000040B10608B42FAD100205DF8044B7047BC
:10427000033292080DD010B401EB820200F5805495
:104280000846236840F8043B8242FAD15DF8044BAB
:1042900070470846704700BF4A780B78012A4FEAFA
:1042A00043130ED000F53060C258002A03DBC25819
:1042B00022F08042C250C25842F40012C250002084
:1042C000704700F51060C258002AF0DAF3E700BF2B
:1042D000CB780A78497801290CBF00F5106000F509
:1042E00030605201023B8158DBB221F40011012BF6
:1042F000815003D8835843F0805383500020704787
:10430000D0F8003823F4FE63C0F80038D0F8003845
:10431000090101F4FE611943C0F80018002070473C
:1043200000F5006208B5536823F0020303205360D0
:10433000FCF74AFE002008BD00F5006208B553688E
:1043400043F0020303205360FCF73EFE002008BD4B
:104350004269806910407047D0F8183800F5006055
:10436000C0691840000C7047D0F8183800F500609C
:10437000C069184080B2704700F5306303EB41110B
:1043800000F500608A6840691040704710B4D0F8AA
:104390001048D0F8343800EB411000F51060CB40E5
:1043A000DB01DBB28068234318405DF8044B7047A3
:1043B000406900F001007047D0F8003923F4FF6332
:1043C00023F0070300F50062C0F80039936803F09A
:1043D0000603042B05D1D0F8003943F00303C0F8DD
:1043E0000039536843F4807353600020704700BF66
:1043F00010B40024C0F8104BD0F8104B44F4002443
:10440000C0F8104BD0F8104B44F01804C0F8104B13
:10441000D0F8104B012944F0C044C0F8104B05D12E
:104420004FF08021C0F8142BC0F8001B00205DF86D
:10443000044B7047D0F8BC321BB10020C3F8140203
:1044400070470320704700BFD0F8C03283B110B569
:10445000D0F8BC4294F80002FF2807D09B6894F87B
:10446000012221469847FF2384F80032002010BD26
:104470000020704743230380004870470800002055
:1044800043230380004870474C00002043230380EF
:1044900000487047900000200A23038000487047BE
:1044A000D400002038B50446D0F8BC5201F018FB07
:1044B000D4F8BC32C5F80C024BB1D4F8C032D5F8F0
:1044C0000402DB6805F503719847002038BD03201E
:1044D00038BD00BFF8B50B7813F060020C460CD065
:1044E000202A08D1CA884E7805467AB9D0F8C03259
:1044F00030469B6898470020F8BD4B780A2BFAD1CC
:1045000001220E4900F00CFD0020F8BD1B06D0F87A
:10451000BC720BD5D0F8C032394630469B689847FC
:10452000E2883946284600F0FBFCE4E787F80062A1
:1045300087F80122394600F009FDDCE7DC030020A2
:1045400010B58121044601F063FA0121204601F0F3
:104550005FFA2046822101F05BFAD4F8BC3253B1F5
:10456000D4F8C0325B689847D4F8BC0204F0B0FBC2
:104570000023C4F8BC32002010BD00BFF8B5037C96
:10458000044673BB4FF400730222812101F030FA1C
:104590004FF4007302220121204601F029FA08237A
:1045A00003228221204601F023FA4FF4077004F021
:1045B00087FB0546C4F8BC0230B3D4F8C0321B6890
:1045C0009847277CD5F804220026C5F814622046B7
:1045D000C5F818628FB14023012101F073FA30460B
:1045E000F8BD40230222812101F002FA4023022279
:1045F0000121204601F0FCF9D1E74FF400730121BD
:1046000001F060FA3846F8BD0120F8BD19B1C0F8D4
:10461000C012002070470320704700BFD0F8BC32A2
:104620000020C3F80812C3F810227047D0F8BC323B
:104630000020C3F804127047D0F8BC228AB110B52C
:10464000D2F814420CB1012010BD0123C2F814327B
:104650008121B2F81032D2F8082201F025FA204662
:1046600010BD0320704700BFD0F8BC228AB110B53E
:10467000047CD2F804222CB14023012101F022FA5B
:10468000002010BD4FF40073012101F01BFA2046F9
:1046900010BD0320704700BF78B10023C0F8B832C6
:1046A000C0F8C032C0F8CC3209B1C0F8B41201234E
:1046B000027080F89C3201F055B90320704700BFAA
:1046C00030B583B00024ADF8064061B1CB6AC0F8C4
:1046D000B81263B105460DF106009847C5F8CC0243
:1046E000204603B030BD0324204603B030BD1C4635
:1046F000F6E700BF01F06EB9D0F8B8320BB11B6815
:1047000018470320704700BF08B5D0F8B8320BB186
:104710005B689847002008BD38B5044600F2AA251A
:10472000284600F0C3FB94F8AA12B4F8B032C4F8DB
:104730009832012201F01F039342C4F8942215D04D
:104740000ED3022B05D129462046BDE8384000F0A3
:104750000FBB204601F08001BDE8384001F066B98A
:1047600029462046BDE8384000F030B929462046A9
:10477000BDE8384000F0CEBA10B5044629B9D0F8EB
:10478000941203290DD0002010BD90F89C22032A1A
:10479000F9D1D0F8B8329B69002BF4D0BDE81040B5
:1047A00018471146D0F85C31D0F86021934208D800
:1047B00090F89C32032B0DD0204600F0DFFB002048
:1047C00010BD9B1A9A42C0F85C3128BF1A4600F00F
:1047D000CDFBD8E7D0F8B8321B69002BECD0984756
:1047E000EAE700BF70B5044682B059B91546D0F863
:1047F0009422022A13D094F8A032012B23D0002057
:1048000002B070BD90F89C32032BF8D1D0F8B832CA
:104810005B69002BF3D002B0BDE870401847D0E9C7
:104820000726B24215D821D094F89C32032B31D000
:104830008021204601F0FAF8204600F0ABFB94F806
:10484000A032012BDBD10023002084F8A03202B07B
:1048500070BD921B0191C261294600F06FFB019B64
:1048600020461A46194601F02DF9C4E78569AA4287
:10487000DAD8D0F898229542D6D20A46019100F0B3
:104880005DFB019BC4F898321A461946204601F098
:1048900019F9B0E7D4F8B832DB68002BC8D020464D
:1048A0009847C5E70121D0F8B82280F89C12002172
:1048B000C0F894124160C0F8A412EAB1D0F8BC323A
:1048C00070B5044613B1536803B1984700224023E2
:1048D0001D4611460126204601F08AF8A4F86461BD
:1048E000C4F860512B4600228021204601F080F858
:1048F000A6842562002070BD03207047017400204B
:10490000704700BF90F89C2203460421D2B280F881
:104910009D22002083F89C12704700BF90F89C32C3
:10492000042B04D190F89D32DBB280F89C32002039
:10493000704700BFD0F8B8225AB108B590F89C3241
:10494000032B01D0002008BDD36923B19847002074
:1049500008BD03207047184608BD00BFD0F8B82234
:104960005AB108B590F89C32032B01D0002008BD45
:10497000136A23B19847002008BD032070471846EA
:1049800008BD00BFD0F8B8225AB108B590F89C32E3
:10499000032B01D0002008BD536A23B198470020A3
:1049A00008BD03207047184608BD00BF00207047AF
:1049B000D0F8B822012180F89C122AB108B55268BB
:1049C00001799047002008BD0020704770B50B7832
:1049D00003F06003202B82B00D46044628D0402B04
:1049E00026D05BB18021204601F020F8204600212E
:1049F00001F01CF80025284602B070BD4B78092B49
:104A0000F0D801A252F823F0A94A0008D94A0008B8
:104A1000E5490008F74A0008E5490008034B00088B
:104A2000454B0008E5490008614B0008454A00086D
:104A3000D4F8B83229469B68204698470546284650
:104A400002B070BD8D78B24E012D357000F2158127
:104A500090F89C32DBB2022B00F01881032B40F05F
:104A60002681002D00F03E814168012900F001817E
:104A7000C9B2FFF749FE317861602046FFF73CFE7E
:104A80000546002800F0F5808021204600F0CEFF8A
:104A90000021204600F0CAFF21792046FFF734FEAE
:104AA000022384F89C32A6E790F89C32013B022B4B
:104AB0004FF0030296D8CB88022B93D1D0F8A432C2
:104AC0000121C16003B1C260022204F10C01204641
:104AD00000F026FA00258EE790F89C32013B022B6D
:104AE00080D84B88012B4FF0000584D1C0F8A45228
:104AF00000F044FA7FE74B88012B00F0B8800025D6
:104B000079E78B88002B7FF46DAFCE88002E7FF481
:104B100069AF4D887F2D3FF665AF90F89C32032B2F
:104B20003FF460AFE9B280F89E1200F0AFFF20467C
:104B300000F024FA002D00F0E7800223354684F8C7
:104B40009C3258E74A88130A0021013BADF8061051
:104B5000062B61D8DFE803F0543F3760604B1A0042
:104B6000CA88012A7FF43EAF90F89C3203F0FF011F
:104B7000002B3FF437AF022940F2A68003297FF4CF
:104B800031AF011D00F0CCF9002534E7037C002B88
:104B900042D1D0F8B8320DF106001B6B98470723BD
:104BA0004370EB88002B64D0BDF80620002A33D078
:104BB000934228BF134601461A462046ADF80630F8
:104BC00000F0AEF99BE7D2B2052A25D8DFE802F063
:104BD0002049433D372D027CD0F8B832002A7AD1E3
:104BE0009B6A0DF10600984702234370D9E7037CC6
:104BF00093B9D0F8B8320DF106005B6B9847D0E757
:104C0000D0F8B432007C1B680DF106019847C8E764
:104C1000D0F8B4325B686BB98021204600F006FF03
:104C20002046002100F002FF69E7D0F8B4329B690A
:104C3000002BF1D00DF10601207C9847B1E7D0F8A8
:104C4000B4325B69002BF5D1E6E7D0F8B4321B69CA
:104C5000002BEFD1E0E7D0F8B432DB68002BE9D1CC
:104C6000DAE7D0F8B4329B68002BE3D1D4E7C0F880
:104C7000A432204600F082F941E7802100F0D6FE00
:104C80002046002100F0D2FE0325B4E6002DF0D02E
:104C900001214160FFF730FD054670B380212046B9
:104CA00000F0C4FE2046002100F0C0FEA3E68021F3
:104CB00000F0BCFE0021204600F0B8FE317820460E
:104CC000FFF722FD032596E60146002541F8085F1F
:104CD00000F026F98FE6DB6A0DF106009847022303
:104CE00043705EE70223456080F89C322946FFF757
:104CF0000BFD204600F042F97DE6204600F03EF92B
:104D0000032384F89C3276E6012384F89C3272E611
:104D1000DD03002070B50B7803F06003202B0D46F7
:104D200004460DD0402B0BD053B18021204600F01B
:104D30007DFE2046002100F079FE0026304670BD41
:104D400094F89C32013B022BEFD82B79012BECD845
:104D5000D4F8B83229469B6820469847EB88064627
:104D6000002BEBD10028E9D1204600F007F9E5E758
:104D700070B50B7803F06003202B054628D0402B3C
:104D800026D00C464BB18021284600F04FFE284625
:104D9000002100F04BFE002070BD4B788A88012B6B
:104DA000D1B244D01BD3032BEDD190F89C32DBB2AF
:104DB000022B55D0032BE6D163882BB94A0603D0CA
:104DC000E3880BB900F032FE284600F0D7F8E2E79E
:104DD000D5F8B83228469B68BDE87040184790F86F
:104DE0009C32DBB2022B44D0032BCCD101F00F0359
:104DF00003EB8303120600EB830349D4B3F8643159
:104E0000002BC0D001F07F03142404FB030404F53D
:104E1000AA742BB1284600F025FE002844D00123B7
:104E2000236021462846022200F07AF8B3E790F882
:104E30009C32DBB2022B13D0032BA4D16388002B4E
:104E4000A9D14E0601D000F0FFFD284600F096F8EB
:104E5000D5F8B832214628469B68BDE8704018470F
:104E60004B0690D000F0E2FD2846802100F0DEFDE8
:104E700091E7480687D111064CBF05F1140105F5ED
:104E8000AA71002328460B60022200F049F882E74D
:104E90009B8C002B3FF477AF01F07F035C1C04EB8D
:104EA000840400EB8404B4E72060BAE70B78037055
:104EB0004B784370CA788B7843EA022343804A795F
:104EC0000B7943EA02238380CA798B7943EA022370
:104ED000C380704700B3037830B4F3B104460023B5
:104EE00014F8015F0133DBB2002DF9D15B0002330E
:104EF000032413800B704C7004785CB102230025EE
:104F00005A1CD2B2CC548D5410F8014F0233DBB28C
:104F1000002CF5D130BC704770470223E8E700BF92
:104F200038B5134602250A46C0E90633C0F8945244
:104F30009BB2002100F0B8FD002038BD08B593B247
:104F40000A46002100F0B0FD002008BD38B5134628
:104F500003250A46C0F85831C0F85C31C0F89452B5
:104F60009BB2002100F0AEFD002038BD08B593B221
:104F70000A46002100F0A6FD002008BD08B5042166
:104F80000023C0F894121A46194600F08DFD002047
:104F900008BD00BF08B505210023C0F894121A46C9
:104FA000194600F08FFD002008BD00BF10B5044673
:104FB000FBF75AFF81B2204600F028FC022102488C
:104FC000BDE8104000F022BC88B8000870B594B06D
:104FD0000020294A0190116C284B41F08051116446
:104FE000126C02F080520192019A02901A6842F407
:104FF00040421A601B6803F4404302934FF4A02020
:10500000012302244FF4800508214FF49072089385
:105010000990062308A8029E0E941294CDE90F5120
:1050200011921393FDF794F900B1FEE703464FF494
:1050300080520F264FF4A055042103A80494059331
:105040000396CDE90652FDF773FB044600B1FEE777
:10505000FDF708FC4FF47A73B0FBF3F0FCF728F887
:105060000420FCF73FF8224621464FF0FF30FBF7C3
:10507000CFFF14B070BD00BF003802400070004088
:1050800080B5A2B0AD4DAE4FAE4E002403F09EF9F8
:10509000FBF76EFFFFF79AFF01942B6BAA4843F0D2
:1050A00004032B632B6B03F004030193019B029415
:1050B0002B6B43F080032B632B6B03F08003029375
:1050C000029B03942B6B43F001032B632B6B03F0C8
:1050D00001030393039B04942B6B43F020032B6386
:1050E0002B6B03F020030493049B05942B6B43F07C
:1050F00010032B632B6B03F010030593059B0694A1
:105100002B6B43F002032B632B6B03F0020306931C
:10511000069B07942B6B43F008032B632B6B03F068
:1051200008030793079B08942B6B43F040032B6302
:105130002B6B03F04003089322464FF40051089B69
:10514000FCF7A8FA22464FF481418048FCF7A2FA06
:1051500001224FF480417E48FCF79CFA22464FF42E
:1051600000417B48FCF796FA224640217948FCF73B
:1051700091FA22464FF480517748FCF78BFA4FF4AE
:1051800000581BA974481D94CDE91B874FF4805922
:10519000FCF73CF902231BA96B481C971D930127C0
:1051A000CDF86C90FCF732F911231BA96648CDF8B5
:1051B0006C80CDE91C341E97FCF728F94FF481432D
:1051C0001BA962481B93CDE91C741E94FCF71EF9C1
:1051D0004FF480431BA95E481B93CDE91C771E97B3
:1051E000FCF714F94FF400431BA959481B93CDE970
:1051F0001C741E97FCF70AF940231BA955481B9302
:10520000CDE91C741E94FCF701F980231BA95148B9
:105210001B93CDE91C44FCF7F9F81BA94E48CDE9D6
:105220001B97CDE91D47FCF7F1F800942B6B7460D8
:1052300043F400132B632B6B4849B46003F4001351
:1052400000934FF6FF724FF480733046009D7461F7
:105250003160C6E90323FDF725FD00B1FEE722A971
:10526000304641F85C9DFDF7F9FE00B1FEE730469F
:10527000FDF7A0FD00B1FEE7062310900FA9304610
:105280000F93FDF7ADFF034600B1FEE709A93046D5
:10529000CDE90933FEF7C8F8034600B1FEE7024640
:1052A00014A93046CDE91433CDE91633CDE91833CE
:1052B0001A93FDF7F9FD034600B1FEE71BA930463E
:1052C000CDE91B33CDE91D33CDE91F382193FEF71E
:1052D000D1F8044600B1FEE7304600F025F9204B36
:1052E000204D9C604FF4E1310C221846C3E9034481
:1052F000C3E90644C3E900515A61FEF7E9F80446E0
:1053000000B1FEE700F040FA174B184818604FF460
:1053100082764FF4007520210A2218469C60C3E96A
:1053200003445C61C3E908449C625E60C3E90651C2
:10533000DA62FDF7F7FAD8B1FEE700BF00380240A5
:1053400000001110BC4E0020001402400004024076
:10535000000C02400018024000080240000001401A
:105360001C4E002000480040444F00200030014007
:105370001B481C4B0360FDF7BDFA00B1FEE700229D
:1053800005212720FBF744FE2720FBF777FE0022AC
:1053900005210C20FBF73CFE0C20FBF76FFE0022E2
:1053A00005210E20FBF734FE0E20FBF767FE0022DE
:1053B00011463D20FBF72CFE3D20FBF75FFE00224F
:1053C00005211B20FBF724FE1B20FBF757FE03F0F3
:1053D000A7FA002003F02CFA02F0CAFDFCE700BF98
:1053E000F84E0020000806500268034B9A4200D095
:1053F0007047FBF7D7BD00BF00100040FEE700BFBD
:1054000008B50320FBF7F2FD002211466FF00B00F8
:10541000FBF7FEFD002211466FF00A00FBF7F8FDD6
:10542000002211466FF00900FBF7F2FD0022114641
:105430006FF00400FBF7ECFD002211466FF0030053
:10544000FBF7E6FD002211466FF00100FBF7E0FDDF
:10545000002211464FF0FF30BDE80840FBF7D8BDF1
:105460000268094B9A4200D0704782B0074B002275
:1054700001925A6B42F040025A635B6B03F04003A7
:105480000193019B02B070470008065000380240AB
:105490000268164B9A4200D07047F0B587B00024DE
:1054A00003F5843300945A6C114842F480525A64D4
:1054B0005B6C039403F48053009301A960230227DB
:1054C00003260525009ACDE90137CDE90465FBF7F0
:1054D0009DFF202301A907480193CDE90274CDE97E
:1054E0000465FBF793FF07B0F0BD00BF003001403B
:1054F000000002400004024002680A4B9A4200D0B9
:10550000704782B003F59C33002201925A6C42F03E
:1055100001025A645B6C03F001030193019B02B02A
:10552000704700BF0000014002680B4B9A4200D058
:10553000704730B587B0002301224FF40075022474
:1055400001A906480592CDE90154CDE90333FBF7E3
:105550005DFF07B030BD00BF0000014000100240F9
:105560002F4B02689A4200D0704770B586B0002475
:1055700003F5F83300941A6C2A4D42F480221A6421
:105580001B6C03F4802300934FF4407302220193B9
:1055900001230099029203930322072301A90646DF
:1055A000214804920593FBF731FF2049AC604FF08E
:1055B00000624FF480632846EC60C5E90544C5E904
:1055C00007446C62C5E900122B61FBF79DFDD8B959
:1055D000174C184875634FF0006340214FF4806208
:1055E0002060636020460023AE63A160C4E90332FB
:1055F000C4E90533C4E907336362FBF785FD48B9A5
:105600003463A66306B070BD4FF492710A48FFF789
:10561000F5FEDDE74FF49B710748FFF7EFFEEFE77C
:1056200000480040BC4D0020000C024028600240B1
:105630005C4E0020586002408CB8000830B501462E
:1056400089B000223620FBF7E3FC3620FBF716FD7D
:105650000025164B02951A6C154C42F010021A6484
:105660001B6C03F0100301A9029303A8029BFDF732
:105670001FF9FDF7FDF80F4A0F4925614300A2FB12
:1056800003239B0C013B40F2E7322046C4E901357D
:105690002160E260FDF706FB10B1012009B030BDCA
:1056A0002046FDF779FB09B030BD00BF003802404D
:1056B0009C4F002083DE1B4300100040704700BF5A
:1056C000704700BFFBF71CBD0148FBF7C9BD00BF19
:1056D000BC4D00200148FBF7C3BD00BF5C4E00205D
:1056E0000148FDF7F7BD00BFBC4E00200148FEF7A2
:1056F00007B900BF1C4E00200148FDF7EBBD00BFFD
:105700009C4F0020704700BF0148FCF7B9B900BFAB
:10571000A8620020074B5A69920407D45B69DB0436
:1057200000D470474FF48050FBF7B8BF4FF40050DF
:10573000FBF7B4BF003C01401049114BD1F8882061
:1057400042F4700210B4C1F888201A680D4C002091
:1057500042F001021A6098601A6822F0847222F402
:1057600080321A605C601A684FF0006422F4802274
:105770001A60D8608C605DF8044B704700ED00E063
:10578000003802401030002410B5094C09490022AD
:105790002046FEF781FF20460749FEF791FF20468D
:1057A0000649FEF733FF2046BDE81040FEF7A2BFD2
:1057B000D84F00208C010020E00000206401002070
:1057C000002070470020704710B5054C0146204668
:1057D000FEF72CFF2046FEF747FF002010BD00BF5C
:1057E000D84F002010B5064C064900222046FEF78F
:1057F00015FF20460449FEF719FF002010BD00BF29
:10580000D84F0020A85A0020A852002010B5094CFB
:10581000D4F8BC32D3F814320BB1012010BD0A46C3
:1058200001462046FEF7FAFE2046BDE81040FEF78E
:1058300003BF00BFD84F00200368B3F1A04F00D0D2
:10584000704710B586B04FF4E853022000240322BD
:1058500001A9019302900A2313480593CDE903425D
:10586000FBF7D4FD01A94FF400730F480193CDE974
:105870000244FBF7CBFD0D4B5A6B42F080025A639A
:1058800000945A6C42F480425A645B6C03F4804387
:105890000093224621464320009BFBF7B9FB43209F
:1058A000FBF7ECFB06B010BD0000024000380240E0
:1058B00000F56F71D0F8EC03FEF72EBFC1EBC1030A
:1058C00000EB8303D0F8EC03D3F80422FEF754BFB7
:1058D000C1EBC10300EB8303D0F8EC035A6CFEF775
:1058E00081BF00BFD0F8EC03FFF724B810B5C16842
:1058F00004460031D0F8EC0318BF0121FEF7FEFF8B
:10590000D4F8EC03BDE81040FEF7CCBF10B5044658
:10591000D0F8EC03FEF7F6FF2268D2F8003E43F021
:105920000103C2F8003E236A23B1034A136943F01E
:105930000603136110BD00BF00ED00E0D0F8EC03DA
:10594000FEF7ECBFD0F8EC03FFF71CB8D0F8EC037F
:10595000FFF704B8D0F8EC03FFF728B8D0F8EC0351
:10596000FFF726B802780AB10020704738B5174B08
:105970004FF0A045C3F8EC030424C0F8C432012161
:10598000C3E90422C3E907225A621A6318460222B5
:10599000C3E90054D962DA609A61FBF78BFE78B9EB
:1059A00080210A48FCF7D0FC402200210748FCF780
:1059B000A7FC802201210548FCF7A2FC002038BD8D
:1059C0004FF4AB710248FFF719FDE9E7A862002028
:1059D000A8B8000808B5D0F8C402FCF73BF80328C3
:1059E00096BF024B0320185C08BD00BF08B8000832
:1059F00010B51C46D0F8C40213462246FCF76CFBD7
:105A0000032896BF014B0320185C10BD08B800089E
:105A100008B5D0F8C402FCF79DFB032896BF024BE3
:105A20000320185C08BD00BF08B8000808B5D0F80E
:105A3000C402FCF70FFC032896BF024B0320185C3E
:105A400008BD00BF08B8000808B5D0F8C402FCF7CC
:105A500031FC032896BF024B0320185C08BD00BF31
:105A600008B800080A06D0F8C43206D4C1EBC10158
:105A700003EB810191F8FA01704701F07F01C1EB5E
:105A8000C10103EB810191F83A00704708B5D0F8E5
:105A9000C402FCF70FFB032896BF024B0320185CDF
:105AA00008BD00BF08B8000808B5D0F8C402FCF76C
:105AB000ADFB032896BF024B0320185C08BD00BF56
:105AC00008B8000808B5D0F8C402FCF76DFB03283D
:105AD00096BF024B0320185C08BD00BF08B8000841
